{
  "contractName": "Marketplace",
  "abi": [
    {
      "inputs": [],
      "payable": false,
      "stateMutability": "nonpayable",
      "type": "constructor"
    },
    {
      "anonymous": false,
      "inputs": [
        {
          "indexed": false,
          "internalType": "uint256",
          "name": "id",
          "type": "uint256"
        },
        {
          "indexed": false,
          "internalType": "string",
          "name": "productName",
          "type": "string"
        },
        {
          "indexed": false,
          "internalType": "string",
          "name": "ownerName",
          "type": "string"
        },
        {
          "indexed": false,
          "internalType": "uint256",
          "name": "price",
          "type": "uint256"
        },
        {
          "indexed": false,
          "internalType": "string",
          "name": "cnicNumber",
          "type": "string"
        },
        {
          "indexed": false,
          "internalType": "string",
          "name": "creationYear",
          "type": "string"
        },
        {
          "indexed": false,
          "internalType": "string",
          "name": "buyingYear",
          "type": "string"
        },
        {
          "indexed": false,
          "internalType": "address payable",
          "name": "ownerAddress",
          "type": "address"
        },
        {
          "indexed": false,
          "internalType": "bool",
          "name": "purchased",
          "type": "bool"
        }
      ],
      "name": "AssetCreation",
      "type": "event"
    },
    {
      "anonymous": false,
      "inputs": [
        {
          "indexed": false,
          "internalType": "uint256",
          "name": "id",
          "type": "uint256"
        },
        {
          "indexed": false,
          "internalType": "string",
          "name": "productName",
          "type": "string"
        },
        {
          "indexed": false,
          "internalType": "string",
          "name": "ownerName",
          "type": "string"
        },
        {
          "indexed": false,
          "internalType": "uint256",
          "name": "price",
          "type": "uint256"
        },
        {
          "indexed": false,
          "internalType": "string",
          "name": "cnicNumber",
          "type": "string"
        },
        {
          "indexed": false,
          "internalType": "string",
          "name": "creationYear",
          "type": "string"
        },
        {
          "indexed": false,
          "internalType": "string",
          "name": "buyingYear",
          "type": "string"
        },
        {
          "indexed": false,
          "internalType": "address payable",
          "name": "ownerAddress",
          "type": "address"
        },
        {
          "indexed": false,
          "internalType": "bool",
          "name": "purchased",
          "type": "bool"
        }
      ],
      "name": "AssetPurchasing",
      "type": "event"
    },
    {
      "constant": true,
      "inputs": [],
      "name": "AssetCount",
      "outputs": [
        {
          "internalType": "uint256",
          "name": "",
          "type": "uint256"
        }
      ],
      "payable": false,
      "stateMutability": "view",
      "type": "function"
    },
    {
      "constant": true,
      "inputs": [
        {
          "internalType": "uint256",
          "name": "",
          "type": "uint256"
        }
      ],
      "name": "Assets",
      "outputs": [
        {
          "internalType": "uint256",
          "name": "id",
          "type": "uint256"
        },
        {
          "internalType": "string",
          "name": "productName",
          "type": "string"
        },
        {
          "internalType": "string",
          "name": "ownerName",
          "type": "string"
        },
        {
          "internalType": "uint256",
          "name": "price",
          "type": "uint256"
        },
        {
          "internalType": "string",
          "name": "cnicNumber",
          "type": "string"
        },
        {
          "internalType": "string",
          "name": "creationYear",
          "type": "string"
        },
        {
          "internalType": "string",
          "name": "buyingYear",
          "type": "string"
        },
        {
          "internalType": "address payable",
          "name": "ownerAddress",
          "type": "address"
        },
        {
          "internalType": "bool",
          "name": "purchased",
          "type": "bool"
        }
      ],
      "payable": false,
      "stateMutability": "view",
      "type": "function"
    },
    {
      "constant": false,
      "inputs": [
        {
          "internalType": "string",
          "name": "_ownerName",
          "type": "string"
        },
        {
          "internalType": "string",
          "name": "_productName",
          "type": "string"
        },
        {
          "internalType": "string",
          "name": "cnicNumber",
          "type": "string"
        },
        {
          "internalType": "string",
          "name": "_creationYear",
          "type": "string"
        },
        {
          "internalType": "string",
          "name": "_buyingYear",
          "type": "string"
        },
        {
          "internalType": "uint256",
          "name": "_price",
          "type": "uint256"
        }
      ],
      "name": "createAsset",
      "outputs": [],
      "payable": false,
      "stateMutability": "nonpayable",
      "type": "function"
    },
    {
      "constant": false,
      "inputs": [
        {
          "internalType": "uint256",
          "name": "_id",
          "type": "uint256"
        },
        {
          "internalType": "string",
          "name": "ownerName",
          "type": "string"
        },
        {
          "internalType": "string",
          "name": "_productName",
          "type": "string"
        },
        {
          "internalType": "uint256",
          "name": "price",
          "type": "uint256"
        },
        {
          "internalType": "string",
          "name": "cnicNumber",
          "type": "string"
        },
        {
          "internalType": "string",
          "name": "buyingYear",
          "type": "string"
        }
      ],
      "name": "purchaseAsset",
      "outputs": [],
      "payable": true,
      "stateMutability": "payable",
      "type": "function"
    }
  ],
  "bytecode": "0x60806040526000805534801561001457600080fd5b50611a2b806100246000396000f3fe60806040526004361061003f5760003560e01c80631f22dac81461004457806320026dbc1461006f5780634b4a80ba1461039d5780637ae53a381461064d575b600080fd5b34801561005057600080fd5b506100596108e1565b6040518082815260200191505060405180910390f35b34801561007b57600080fd5b5061039b600480360360c081101561009257600080fd5b81019080803590602001906401000000008111156100af57600080fd5b8201836020820111156100c157600080fd5b803590602001918460018302840111640100000000831117156100e357600080fd5b91908080601f016020809104026020016040519081016040528093929190818152602001838380828437600081840152601f19601f8201169050808301925050505050505091929192908035906020019064010000000081111561014657600080fd5b82018360208201111561015857600080fd5b8035906020019184600183028401116401000000008311171561017a57600080fd5b91908080601f016020809104026020016040519081016040528093929190818152602001838380828437600081840152601f19601f820116905080830192505050505050509192919290803590602001906401000000008111156101dd57600080fd5b8201836020820111156101ef57600080fd5b8035906020019184600183028401116401000000008311171561021157600080fd5b91908080601f016020809104026020016040519081016040528093929190818152602001838380828437600081840152601f19601f8201169050808301925050505050505091929192908035906020019064010000000081111561027457600080fd5b82018360208201111561028657600080fd5b803590602001918460018302840111640100000000831117156102a857600080fd5b91908080601f016020809104026020016040519081016040528093929190818152602001838380828437600081840152601f19601f8201169050808301925050505050505091929192908035906020019064010000000081111561030b57600080fd5b82018360208201111561031d57600080fd5b8035906020019184600183028401116401000000008311171561033f57600080fd5b91908080601f016020809104026020016040519081016040528093929190818152602001838380828437600081840152601f19601f820116905080830192505050505050509192919290803590602001909291905050506108e7565b005b3480156103a957600080fd5b506103d6600480360360208110156103c057600080fd5b8101908080359060200190929190505050610d2f565b604051808a815260200180602001806020018981526020018060200180602001806020018873ffffffffffffffffffffffffffffffffffffffff1673ffffffffffffffffffffffffffffffffffffffff1681526020018715151515815260200186810386528e818151815260200191508051906020019080838360005b8381101561046e578082015181840152602081019050610453565b50505050905090810190601f16801561049b5780820380516001836020036101000a031916815260200191505b5086810385528d818151815260200191508051906020019080838360005b838110156104d45780820151818401526020810190506104b9565b50505050905090810190601f1680156105015780820380516001836020036101000a031916815260200191505b5086810384528b818151815260200191508051906020019080838360005b8381101561053a57808201518184015260208101905061051f565b50505050905090810190601f1680156105675780820380516001836020036101000a031916815260200191505b5086810383528a818151815260200191508051906020019080838360005b838110156105a0578082015181840152602081019050610585565b50505050905090810190601f1680156105cd5780820380516001836020036101000a031916815260200191505b50868103825289818151815260200191508051906020019080838360005b838110156106065780820151818401526020810190506105eb565b50505050905090810190601f1680156106335780820380516001836020036101000a031916815260200191505b509e50505050505050505050505050505060405180910390f35b6108df600480360360c081101561066357600080fd5b81019080803590602001909291908035906020019064010000000081111561068a57600080fd5b82018360208201111561069c57600080fd5b803590602001918460018302840111640100000000831117156106be57600080fd5b91908080601f016020809104026020016040519081016040528093929190818152602001838380828437600081840152601f19601f8201169050808301925050505050505091929192908035906020019064010000000081111561072157600080fd5b82018360208201111561073357600080fd5b8035906020019184600183028401116401000000008311171561075557600080fd5b91908080601f016020809104026020016040519081016040528093929190818152602001838380828437600081840152601f19601f82011690508083019250505050505050919291929080359060200190929190803590602001906401000000008111156107c257600080fd5b8201836020820111156107d457600080fd5b803590602001918460018302840111640100000000831117156107f657600080fd5b91908080601f016020809104026020016040519081016040528093929190818152602001838380828437600081840152601f19601f8201169050808301925050505050505091929192908035906020019064010000000081111561085957600080fd5b82018360208201111561086b57600080fd5b8035906020019184600183028401116401000000008311171561088d57600080fd5b91908080601f016020809104026020016040519081016040528093929190818152602001838380828437600081840152601f19601f8201169050808301925050505050505091929192905050506110a2565b005b60005481565b600081116108f457600080fd5b600080815480929190600101919050555060405180610120016040528060005481526020018681526020018781526020018281526020018581526020018481526020018381526020013373ffffffffffffffffffffffffffffffffffffffff16815260200160001515815250600160008054815260200190815260200160002060008201518160000155602082015181600101908051906020019061099a9291906118ed565b5060408201518160020190805190602001906109b79291906118ed565b506060820151816003015560808201518160040190805190602001906109de9291906118ed565b5060a08201518160050190805190602001906109fb9291906118ed565b5060c0820151816006019080519060200190610a189291906118ed565b5060e08201518160070160006101000a81548173ffffffffffffffffffffffffffffffffffffffff021916908373ffffffffffffffffffffffffffffffffffffffff1602179055506101008201518160070160146101000a81548160ff0219169083151502179055509050507f851f13ba0e1494ed25f75b4311839cab45850b435fe4a850551f552df3efc5bb600054868884888888336000604051808a815260200180602001806020018981526020018060200180602001806020018873ffffffffffffffffffffffffffffffffffffffff1673ffffffffffffffffffffffffffffffffffffffff1681526020018715151515815260200186810386528e818151815260200191508051906020019080838360005b83811015610b49578082015181840152602081019050610b2e565b50505050905090810190601f168015610b765780820380516001836020036101000a031916815260200191505b5086810385528d818151815260200191508051906020019080838360005b83811015610baf578082015181840152602081019050610b94565b50505050905090810190601f168015610bdc5780820380516001836020036101000a031916815260200191505b5086810384528b818151815260200191508051906020019080838360005b83811015610c15578082015181840152602081019050610bfa565b50505050905090810190601f168015610c425780820380516001836020036101000a031916815260200191505b5086810383528a818151815260200191508051906020019080838360005b83811015610c7b578082015181840152602081019050610c60565b50505050905090810190601f168015610ca85780820380516001836020036101000a031916815260200191505b50868103825289818151815260200191508051906020019080838360005b83811015610ce1578082015181840152602081019050610cc6565b50505050905090810190601f168015610d0e5780820380516001836020036101000a031916815260200191505b509e50505050505050505050505050505060405180910390a1505050505050565b6001602052806000526040600020600091509050806000015490806001018054600181600116156101000203166002900480601f016020809104026020016040519081016040528092919081815260200182805460018160011615610100020316600290048015610de15780601f10610db657610100808354040283529160200191610de1565b820191906000526020600020905b815481529060010190602001808311610dc457829003601f168201915b505050505090806002018054600181600116156101000203166002900480601f016020809104026020016040519081016040528092919081815260200182805460018160011615610100020316600290048015610e7f5780601f10610e5457610100808354040283529160200191610e7f565b820191906000526020600020905b815481529060010190602001808311610e6257829003601f168201915b505050505090806003015490806004018054600181600116156101000203166002900480601f016020809104026020016040519081016040528092919081815260200182805460018160011615610100020316600290048015610f235780601f10610ef857610100808354040283529160200191610f23565b820191906000526020600020905b815481529060010190602001808311610f0657829003601f168201915b505050505090806005018054600181600116156101000203166002900480601f016020809104026020016040519081016040528092919081815260200182805460018160011615610100020316600290048015610fc15780601f10610f9657610100808354040283529160200191610fc1565b820191906000526020600020905b815481529060010190602001808311610fa457829003601f168201915b505050505090806006018054600181600116156101000203166002900480601f01602080910402602001604051908101604052809291908181526020018280546001816001161561010002031660029004801561105f5780601f106110345761010080835404028352916020019161105f565b820191906000526020600020905b81548152906001019060200180831161104257829003601f168201915b5050505050908060070160009054906101000a900473ffffffffffffffffffffffffffffffffffffffff16908060070160149054906101000a900460ff16905089565b6110aa61196d565b600160008881526020019081526020016000206040518061012001604052908160008201548152602001600182018054600181600116156101000203166002900480601f01602080910402602001604051908101604052809291908181526020018280546001816001161561010002031660029004801561116c5780601f106111415761010080835404028352916020019161116c565b820191906000526020600020905b81548152906001019060200180831161114f57829003601f168201915b50505050508152602001600282018054600181600116156101000203166002900480601f01602080910402602001604051908101604052809291908181526020018280546001816001161561010002031660029004801561120e5780601f106111e35761010080835404028352916020019161120e565b820191906000526020600020905b8154815290600101906020018083116111f157829003601f168201915b5050505050815260200160038201548152602001600482018054600181600116156101000203166002900480601f0160208091040260200160405190810160405280929190818152602001828054600181600116156101000203166002900480156112ba5780601f1061128f576101008083540402835291602001916112ba565b820191906000526020600020905b81548152906001019060200180831161129d57829003601f168201915b50505050508152602001600582018054600181600116156101000203166002900480601f01602080910402602001604051908101604052809291908181526020018280546001816001161561010002031660029004801561135c5780601f106113315761010080835404028352916020019161135c565b820191906000526020600020905b81548152906001019060200180831161133f57829003601f168201915b50505050508152602001600682018054600181600116156101000203166002900480601f0160208091040260200160405190810160405280929190818152602001828054600181600116156101000203166002900480156113fe5780601f106113d3576101008083540402835291602001916113fe565b820191906000526020600020905b8154815290600101906020018083116113e157829003601f168201915b505050505081526020016007820160009054906101000a900473ffffffffffffffffffffffffffffffffffffffff1673ffffffffffffffffffffffffffffffffffffffff1673ffffffffffffffffffffffffffffffffffffffff1681526020016007820160149054906101000a900460ff161515151581525050905060008160e001519050338260e0019073ffffffffffffffffffffffffffffffffffffffff16908173ffffffffffffffffffffffffffffffffffffffff168152505060018261010001901515908115158152505081600160008a81526020019081526020016000206000820151816000015560208201518160010190805190602001906115079291906118ed565b5060408201518160020190805190602001906115249291906118ed565b5060608201518160030155608082015181600401908051906020019061154b9291906118ed565b5060a08201518160050190805190602001906115689291906118ed565b5060c08201518160060190805190602001906115859291906118ed565b5060e08201518160070160006101000a81548173ffffffffffffffffffffffffffffffffffffffff021916908373ffffffffffffffffffffffffffffffffffffffff1602179055506101008201518160070160146101000a81548160ff0219169083151502179055509050508073ffffffffffffffffffffffffffffffffffffffff166108fc83606001519081150290604051600060405180830381858888f1935050505015801561163b573d6000803e3d6000fd5b507f6123ac666a138167ae8e73608919760534824441f0f0136cce181fa28bf75586600054878988888760a0015189336001604051808a815260200180602001806020018981526020018060200180602001806020018873ffffffffffffffffffffffffffffffffffffffff1673ffffffffffffffffffffffffffffffffffffffff1681526020018715151515815260200186810386528e818151815260200191508051906020019080838360005b838110156117055780820151818401526020810190506116ea565b50505050905090810190601f1680156117325780820380516001836020036101000a031916815260200191505b5086810385528d818151815260200191508051906020019080838360005b8381101561176b578082015181840152602081019050611750565b50505050905090810190601f1680156117985780820380516001836020036101000a031916815260200191505b5086810384528b818151815260200191508051906020019080838360005b838110156117d15780820151818401526020810190506117b6565b50505050905090810190601f1680156117fe5780820380516001836020036101000a031916815260200191505b5086810383528a818151815260200191508051906020019080838360005b8381101561183757808201518184015260208101905061181c565b50505050905090810190601f1680156118645780820380516001836020036101000a031916815260200191505b50868103825289818151815260200191508051906020019080838360005b8381101561189d578082015181840152602081019050611882565b50505050905090810190601f1680156118ca5780820380516001836020036101000a031916815260200191505b509e50505050505050505050505050505060405180910390a15050505050505050565b828054600181600116156101000203166002900490600052602060002090601f016020900481019282601f1061192e57805160ff191683800117855561195c565b8280016001018555821561195c579182015b8281111561195b578251825591602001919060010190611940565b5b50905061196991906119d1565b5090565b60405180610120016040528060008152602001606081526020016060815260200160008152602001606081526020016060815260200160608152602001600073ffffffffffffffffffffffffffffffffffffffff1681526020016000151581525090565b6119f391905b808211156119ef5760008160009055506001016119d7565b5090565b9056fea265627a7a72315820c8f8449bfb22b3577661d67f5b08f9f7258511c451f2aaba2ecba961bc879d7b64736f6c63430005100032",
  "source": "pragma solidity ^0.5.0;\n\ncontract Marketplace {\n    uint public AssetCount = 0;\n    mapping(uint => Asset) public Assets;\n\n    struct Asset {\n        uint id;\n        string productName;\n        string ownerName;\n        uint price;\n        string cnicNumber;\n        string creationYear;\n        string buyingYear;\n        address payable ownerAddress;\n        bool purchased;\n    }\n\n    event AssetCreation(\n        uint id,\n        string productName,\n        string ownerName,\n        uint price,\n        string cnicNumber,\n        string creationYear,\n        string buyingYear,\n        address payable ownerAddress,\n        bool purchased\n    );\n\n    event AssetPurchasing(\n        uint id,\n        string productName,\n        string ownerName,\n        uint price,\n        string cnicNumber,\n        string creationYear,\n        string buyingYear,\n        address payable ownerAddress,\n        bool purchased\n    );\n\n    constructor() public {\n    }\n\n    function createAsset(string memory _ownerName,string memory _productName,string memory cnicNumber,string memory _creationYear, string memory _buyingYear, uint _price) public {\n        // Require a valid price\n        require(_price > 0);\n        // Increment Asset count\n        AssetCount++;\n        // Create the Asset\n        Assets[AssetCount] = Asset(AssetCount,_productName, _ownerName, _price,cnicNumber, _creationYear,_buyingYear, msg.sender, false);\n        // Trigger an event\n        emit AssetCreation(AssetCount,_productName, _ownerName, _price,cnicNumber, _creationYear,_buyingYear, msg.sender, false);\n\n    }\n\n    function purchaseAsset(uint _id, string memory ownerName,string memory _productName ,uint price, string memory cnicNumber,string memory buyingYear) public payable {\n        // Fetch the Asset\n        Asset memory _asset = Assets[_id];\n        // Fetch the ownerAddress\n        address payable _seller = _asset.ownerAddress;\n        _asset.ownerAddress = msg.sender;\n        _asset.purchased = true;\n        Assets[_id] = _asset;\n        address(_seller).transfer(_asset.price);\n        emit AssetPurchasing(AssetCount,_productName, ownerName, price,cnicNumber, _asset.creationYear, buyingYear, msg.sender, true);\n    }\n}",
  "sourcePath": "C:\\Users\\umerh\\Downloads\\smart_contract-master - Copy\\src\\contracts\\AssetSelling.sol",
  "compiler": {
    "name": "solc",
    "version": "0.5.16+commit.9c3226ce.Emscripten.clang"
  },
  "schemaVersion": "3.2.2",
  "updatedAt": "2020-11-23T18:54:58.913Z",
  "networkType": "ethereum",
  "devdoc": {
    "methods": {}
  },
  "userdoc": {
    "methods": {}
  }
}